{
  "_format": "hh-sol-artifact-1",
  "contractName": "Payable",
  "sourceName": "contracts/Payable.sol",
  "abi": [
    {
      "inputs": [],
      "stateMutability": "nonpayable",
      "type": "constructor"
    },
    {
      "inputs": [],
      "name": "owner",
      "outputs": [
        {
          "internalType": "address payable",
          "name": "",
          "type": "address"
        }
      ],
      "stateMutability": "view",
      "type": "function"
    },
    {
      "inputs": [],
      "name": "withdrawal",
      "outputs": [],
      "stateMutability": "nonpayable",
      "type": "function"
    }
  ],
  "bytecode": "0x608060405234801561001057600080fd5b50336000806101000a81548173ffffffffffffffffffffffffffffffffffffffff021916908373ffffffffffffffffffffffffffffffffffffffff1602179055506102b2806100606000396000f3fe608060405234801561001057600080fd5b50600436106100365760003560e01c80638da5cb5b1461003b578063d4e9329214610059575b600080fd5b610043610063565b604051610050919061019e565b60405180910390f35b610061610087565b005b60008054906101000a900473ffffffffffffffffffffffffffffffffffffffff1681565b600047905060008060009054906101000a900473ffffffffffffffffffffffffffffffffffffffff1673ffffffffffffffffffffffffffffffffffffffff16826040516100d3906101ea565b60006040518083038185875af1925050503d8060008114610110576040519150601f19603f3d011682016040523d82523d6000602084013e610115565b606091505b5050905080610159576040517f08c379a00000000000000000000000000000000000000000000000000000000081526004016101509061025c565b60405180910390fd5b5050565b600073ffffffffffffffffffffffffffffffffffffffff82169050919050565b60006101888261015d565b9050919050565b6101988161017d565b82525050565b60006020820190506101b3600083018461018f565b92915050565b600081905092915050565b50565b60006101d46000836101b9565b91506101df826101c4565b600082019050919050565b60006101f5826101c7565b9150819050919050565b600082825260208201905092915050565b7f4661696c6564207769746864726177616c000000000000000000000000000000600082015250565b60006102466011836101ff565b915061025182610210565b602082019050919050565b6000602082019050818103600083015261027581610239565b905091905056fea2646970667358221220386572f8e25f165b674018f07efe4459f4b6b251231bd5ce5e8b590b2565cbaf64736f6c63430008110033",
  "linkReferences": {},
  "deployedLinkReferences": {}
}