{
  "_format": "hh-sol-artifact-1",
  "contractName": "GasLess",
  "sourceName": "contracts/GasLess.sol",
  "abi": [
    {
      "anonymous": false,
      "inputs": [
        {
          "indexed": false,
          "internalType": "address",
          "name": "sender",
          "type": "address"
        },
        {
          "indexed": false,
          "internalType": "string",
          "name": "newMessage",
          "type": "string"
        }
      ],
      "name": "MessageUpdated",
      "type": "event"
    },
    {
      "inputs": [],
      "name": "getMessage",
      "outputs": [
        {
          "internalType": "string",
          "name": "",
          "type": "string"
        }
      ],
      "stateMutability": "view",
      "type": "function"
    },
    {
      "inputs": [],
      "name": "getSender",
      "outputs": [
        {
          "internalType": "address",
          "name": "",
          "type": "address"
        }
      ],
      "stateMutability": "view",
      "type": "function"
    },
    {
      "inputs": [],
      "name": "message",
      "outputs": [
        {
          "internalType": "string",
          "name": "",
          "type": "string"
        }
      ],
      "stateMutability": "view",
      "type": "function"
    },
    {
      "inputs": [],
      "name": "sender",
      "outputs": [
        {
          "internalType": "address",
          "name": "",
          "type": "address"
        }
      ],
      "stateMutability": "view",
      "type": "function"
    },
    {
      "inputs": [
        {
          "internalType": "string",
          "name": "_message",
          "type": "string"
        }
      ],
      "name": "setMessage",
      "outputs": [],
      "stateMutability": "nonpayable",
      "type": "function"
    }
  ],
  "bytecode": "0x60806040526040518060400160405280600681526020017f48656c6c6f210000000000000000000000000000000000000000000000000000815250600090816200004a9190620002d9565b503480156200005857600080fd5b50620003c0565b600081519050919050565b7f4e487b7100000000000000000000000000000000000000000000000000000000600052604160045260246000fd5b7f4e487b7100000000000000000000000000000000000000000000000000000000600052602260045260246000fd5b60006002820490506001821680620000e157607f821691505b602082108103620000f757620000f662000099565b5b50919050565b60008190508160005260206000209050919050565b60006020601f8301049050919050565b600082821b905092915050565b600060088302620001617fffffffffffffffffffffffffffffffffffffffffffffffffffffffffffffffff8262000122565b6200016d868362000122565b95508019841693508086168417925050509392505050565b6000819050919050565b6000819050919050565b6000620001ba620001b4620001ae8462000185565b6200018f565b62000185565b9050919050565b6000819050919050565b620001d68362000199565b620001ee620001e582620001c1565b8484546200012f565b825550505050565b600090565b62000205620001f6565b62000212818484620001cb565b505050565b5b818110156200023a576200022e600082620001fb565b60018101905062000218565b5050565b601f82111562000289576200025381620000fd565b6200025e8462000112565b810160208510156200026e578190505b620002866200027d8562000112565b83018262000217565b50505b505050565b600082821c905092915050565b6000620002ae600019846008026200028e565b1980831691505092915050565b6000620002c983836200029b565b9150826002028217905092915050565b620002e4826200005f565b67ffffffffffffffff8111156200030057620002ff6200006a565b5b6200030c8254620000c8565b620003198282856200023e565b600060209050601f8311600181146200035157600084156200033c578287015190505b620003488582620002bb565b865550620003b8565b601f1984166200036186620000fd565b60005b828110156200038b5784890151825560018201915060208501945060208101905062000364565b86831015620003ab5784890151620003a7601f8916826200029b565b8355505b6001600288020188555050505b505050505050565b610a1b80620003d06000396000f3fe608060405234801561001057600080fd5b50600436106100575760003560e01c8063368b87721461005c5780635e01eb5a1461007857806367e404ce14610096578063ce6d41de146100b4578063e21f37ce146100d2575b600080fd5b610076600480360381019061007191906104d5565b6100f0565b005b61008061020b565b60405161008d919061055f565b60405180910390f35b61009e610235565b6040516100ab919061055f565b60405180910390f35b6100bc61025b565b6040516100c991906105f9565b60405180910390f35b6100da6102ed565b6040516100e791906105f9565b60405180910390f35b8060405160200161010090610641565b604051602081830303815290604052805190602001208160405160200161012791906105f9565b604051602081830303815290604052805190602001200361017d576040517f08c379a0000000000000000000000000000000000000000000000000000000008152600401610174906106ad565b60405180910390fd5b816000908161018c91906108e3565b5033600160006101000a81548173ffffffffffffffffffffffffffffffffffffffff021916908373ffffffffffffffffffffffffffffffffffffffff1602179055507f3f784155aa459466ce143eb76c376834c30b26979da03bd4be74cd146c4bb1c333836040516101ff9291906109b5565b60405180910390a15050565b6000600160009054906101000a900473ffffffffffffffffffffffffffffffffffffffff16905090565b600160009054906101000a900473ffffffffffffffffffffffffffffffffffffffff1681565b60606000805461026a906106fc565b80601f0160208091040260200160405190810160405280929190818152602001828054610296906106fc565b80156102e35780601f106102b8576101008083540402835291602001916102e3565b820191906000526020600020905b8154815290600101906020018083116102c657829003601f168201915b5050505050905090565b600080546102fa906106fc565b80601f0160208091040260200160405190810160405280929190818152602001828054610326906106fc565b80156103735780601f1061034857610100808354040283529160200191610373565b820191906000526020600020905b81548152906001019060200180831161035657829003601f168201915b505050505081565b6000604051905090565b600080fd5b600080fd5b600080fd5b600080fd5b6000601f19601f8301169050919050565b7f4e487b7100000000000000000000000000000000000000000000000000000000600052604160045260246000fd5b6103e282610399565b810181811067ffffffffffffffff82111715610401576104006103aa565b5b80604052505050565b600061041461037b565b905061042082826103d9565b919050565b600067ffffffffffffffff8211156104405761043f6103aa565b5b61044982610399565b9050602081019050919050565b82818337600083830152505050565b600061047861047384610425565b61040a565b90508281526020810184848401111561049457610493610394565b5b61049f848285610456565b509392505050565b600082601f8301126104bc576104bb61038f565b5b81356104cc848260208601610465565b91505092915050565b6000602082840312156104eb576104ea610385565b5b600082013567ffffffffffffffff8111156105095761050861038a565b5b610515848285016104a7565b91505092915050565b600073ffffffffffffffffffffffffffffffffffffffff82169050919050565b60006105498261051e565b9050919050565b6105598161053e565b82525050565b60006020820190506105746000830184610550565b92915050565b600081519050919050565b600082825260208201905092915050565b60005b838110156105b4578082015181840152602081019050610599565b60008484015250505050565b60006105cb8261057a565b6105d58185610585565b93506105e5818560208601610596565b6105ee81610399565b840191505092915050565b6000602082019050818103600083015261061381846105c0565b905092915050565b50565b600061062b600083610585565b91506106368261061b565b600082019050919050565b6000602082019050818103600083015261065a8161061e565b9050919050565b7f41206d6573736167652069732072657175697265640000000000000000000000600082015250565b6000610697601583610585565b91506106a282610661565b602082019050919050565b600060208201905081810360008301526106c68161068a565b9050919050565b7f4e487b7100000000000000000000000000000000000000000000000000000000600052602260045260246000fd5b6000600282049050600182168061071457607f821691505b602082108103610727576107266106cd565b5b50919050565b60008190508160005260206000209050919050565b60006020601f8301049050919050565b600082821b905092915050565b60006008830261078f7fffffffffffffffffffffffffffffffffffffffffffffffffffffffffffffffff82610752565b6107998683610752565b95508019841693508086168417925050509392505050565b6000819050919050565b6000819050919050565b60006107e06107db6107d6846107b1565b6107bb565b6107b1565b9050919050565b6000819050919050565b6107fa836107c5565b61080e610806826107e7565b84845461075f565b825550505050565b600090565b610823610816565b61082e8184846107f1565b505050565b5b818110156108525761084760008261081b565b600181019050610834565b5050565b601f821115610897576108688161072d565b61087184610742565b81016020851015610880578190505b61089461088c85610742565b830182610833565b50505b505050565b600082821c905092915050565b60006108ba6000198460080261089c565b1980831691505092915050565b60006108d383836108a9565b9150826002028217905092915050565b6108ec8261057a565b67ffffffffffffffff811115610905576109046103aa565b5b61090f82546106fc565b61091a828285610856565b600060209050601f83116001811461094d576000841561093b578287015190505b61094585826108c7565b8655506109ad565b601f19841661095b8661072d565b60005b828110156109835784890151825560018201915060208501945060208101905061095e565b868310156109a0578489015161099c601f8916826108a9565b8355505b6001600288020188555050505b505050505050565b60006040820190506109ca6000830185610550565b81810360208301526109dc81846105c0565b9050939250505056fea264697066735822122071dfb8882199653adc9b7e2b59700420f288f37430bd9548e86ef10d0d251ca964736f6c63430008110033",
  "linkReferences": {},
  "deployedLinkReferences": {}
}